:100000000C9462000C948A000C948A000C948A0070
:100010000C948A000C948A000C948A000C948A0038
:100020000C948A000C948A000C948A000C948A0028
:100030000C948A000C948A000C948A000C948A0018
:100040000C94FD050C948A000C948A000C948A0090
:100050000C948A000C948A000C948A000C948A00F8
:100060000C9447060C948A0000000000240027002E
:100070002A0000000000250028002B0000000000DE
:1000800023002600290004040404040404040202DA
:100090000202020203030303030301020408102007
:1000A0004080010204081020010204081020000012
:1000B0000008000201000003040700000000000027
:1000C0000000660711241FBECFEFD8E0DEBFCDBF12
:1000D00011E0A0E0B1E0EEE5F5E102C005900D927F
:1000E000A433B107D9F722E0A4E3B1E001C01D9227
:1000F000A932B207E1F710E0C2E6D0E004C02197D0
:10010000FE010E94A70AC136D107C9F70E949507D0
:100110000C94AD0A0C94000008950895AF92BF921C
:10012000CF92DF92EF92FF920F931F93CF93DF93C3
:100130006C017B018B01040F151FEB015E01AE18F2
:10014000BF08C017D10759F06991D601ED91FC9114
:100150000190F081E02DC6010995892B79F7C50141
:10016000DF91CF911F910F91FF90EF90DF90CF9093
:10017000BF90AF900895833081F028F4813099F0DA
:100180008230A9F008958730A9F08830C9F0843012
:10019000B1F4809180008F7D03C0809180008F77C3
:1001A00080938000089584B58F7784BD089584B5C9
:1001B0008F7DFBCF8091B0008F778093B000089542
:1001C0008091B0008F7DF9CFCF93DF93282F30E05F
:1001D000F901E255FF4F8491F901E656FF4FD491A2
:1001E000F901EA57FF4FC491CC23A1F081110E947D
:1001F000BB00EC2FF0E0EE0FFF1FE458FF4FA5917E
:10020000B491EC91ED2381E090E009F480E0DF917E
:10021000CF91089580E090E0FACF1F93CF93DF93C2
:10022000282F30E0F901E255FF4F8491F901E6569D
:10023000FF4FD491F901EA57FF4FC491CC23A9F0A5
:10024000162F81110E94BB00EC2FF0E0EE0FFF1F74
:10025000EE58FF4FA591B4918FB7F894EC9111111E
:1002600008C0D095DE23DC938FBFDF91CF911F9123
:100270000895DE2BF8CFCF93DF9390E0FC01E65694
:10028000FF4F24918A579F4FFC0184918823D1F01E
:1002900090E0880F991FFC01E859FF4FA591B49198
:1002A000FC01EE58FF4FC591D49161110EC09FB76C
:1002B000F8948C91E22FE0958E238C932881E22391
:1002C000E8839FBFDF91CF9108958FB7F894EC91A9
:1002D000E22BEC938FBFF6CF3FB7F89480917D016E
:1002E00090917E01A0917F01B091800126B5A89BDD
:1002F00005C02F3F19F00196A11DB11D3FBFBA2FB8
:10030000A92F982F8827BC01CD01620F711D811D77
:10031000911D42E0660F771F881F991F4A95D1F7FC
:10032000089520915501260F3327331F21323105BF
:10033000ECF42091DB01FC0190E080E0243069F0D6
:1003400082E00895A09155012191AC014B5C5E4F74
:10035000A40FB52FB11D2C930196861798F38091A9
:100360005501680F6093550180E0089581E008957C
:100370001092DB0181E08093DA011092B50161E017
:1003800082E10E940D0161E083E10E940D01E9EB31
:10039000F0E080818E7F808380818D7F808388E400
:1003A0008093B80085E48093BC000895CF93DF93D9
:1003B00091E0909334018823B9F0C091B800D091B6
:1003C000BA008091BC008A7B8093BC0060E082E12F
:1003D0000E940D0160E083E10E940D010E94B801BE
:1003E000D093BA00C093B800DF91CF910895CF9217
:1003F000DF92EF92FF920F931F93CF93DF93D091F1
:10040000040281E0D13208F09CC0C09103020E9436
:100410006C016B017C018091DB0181116CC082E079
:100420008093DB0181E08093DA018FEF8093D90123
:100430001092D801D093D701A3EEB1E0E7EBF1E041
:1004400080E0D8138DC01092B6018091B601CC0F18
:10045000C82BC093B6018091B501813009F084C0EA
:100460001092B5010E946C016B017C018091B60174
:100470008093BB008091DD019091DE01A091DF01AE
:10048000B091E001892B8A2B8B2BA1F00E946C018B
:100490000091DD011091DE012091DF013091E0013A
:1004A0006C197D098E099F09061717072807390758
:1004B00008F442C08091BC0083FDD8CF85EC8093C6
:1004C000BC000E946C016B017C018091DB018230D9
:1004D00009F44CC08091D9018F3F09F469C0809123
:1004E000D901803209F466C08091D901803309F4C2
:1004F00063C084E026C08091DD019091DE01A0916F
:10050000DF01B091E001892B8A2B8B2B09F483CF7B
:100510000E946C010091DD011091DE012091DF014C
:100520003091E0016C197D098E099F0906171707A4
:100530002807390708F06FCF8091DC010E94D601AF
:1005400085E01092E201109204021092E101DF9125
:10055000CF911F910F91FF90EF90DF90CF90089572
:100560009D9191938F5F6DCF85EEA9CF8091DD0135
:100570009091DE01A091DF01B091E001892B8A2BDF
:100580008B2B09F4A2CF0E946C010091DD01109128
:10059000DE012091DF013091E0016C197D098E09A7
:1005A0009F09061717072807390708F08ECFC4CF11
:1005B00080E0C7CF82E0C5CF83E0C3CF0895E0914C
:1005C000860180918501E81730F4F0E0E957FE4F8D
:1005D000808190E008958FEF9FEF089590918601BC
:1005E000809185012FEF3FEF981748F4E92FF0E055
:1005F000E957FE4F208130E09F5F90938601C9014B
:1006000008958091850190918601891B990B089529
:10061000CF92DF92EF92FF920F931F93CF93DF93CE
:100620007C01CB018A012091E101222389F0EB01B9
:100630006B01C40ED51ECC15DD0569F06991D7019B
:10064000ED91FC910190F081E02DC7010995F3CF68
:10065000642F0E949101C801DF91CF911F910F91EA
:10066000FF90EF90DF90CF900895CF93DF931F928C
:10067000CDB7DEB769832091E1012223F9F0209103
:100680000402203258F021E030E0FC013383228361
:1006900090E080E00F90DF91CF9108958091E2018A
:1006A000E82FF0E0ED51FE4F998190838F5F8093AA
:1006B000E2018093040281E090E0ECCF61E0CE01A2
:1006C00001960E949101F7CFDF92EF92FF920F9374
:1006D0001F93CF93DF93D82F162FF42ED22E81E0C5
:1006E0008093E10188E6809303021092E201109268
:1006F000040260E085E092E00E943503CAE08E2D9E
:100700006C2F0E94510A8295807F682F690F85E0C7
:1007100092E00E943503802F6C2F0E94510A82952F
:10072000807F682F690F85E092E00E9435038D2D50
:100730006C2F0E94510A8295807F682F690F85E097
:1007400092E00E94350360E085E092E00E9435036C
:100750008F2D6C2F0E94510A8295807F682F690F20
:1007600085E092E00E943503812F6C2F0E94510A90
:100770008295807F682F690F85E092E00E943503A3
:100780008D2F6C2F0E94510A8295807F682F690FF0
:1007900085E092E00E94350360E085E092E00E94EF
:1007A0003503DF91CF911F910F91FF90EF90DF9074
:1007B0000C94F701089590E080E008958F929F9245
:1007C000AF92BF920F931F93CF93DF93CDB7DEB756
:1007D000A1970FB6F894DEBF0FBECDBF19A242306D
:1007E00008F44AE08E010F5D1F4F842E912CB12C2E
:1007F000A12CA50194010E94710AE62FB901CA013A
:10080000EA3044F5E05DD801EE938D01232B242BD3
:10081000252B79F790E080E0109769F0FD010190B9
:100820000020E9F73197AF014A1B5B0BBD0181E165
:1008300092E00E948E00A1960FB6F894DEBF0FBE24
:10084000CDBFDF91CF911F910F91BF90AF909F903F
:100850008F900895E95CD7CFFC0101900020E9F763
:100860003197AF01481B590BBC0181E192E00C9418
:100870008E00CF93DF93EC0160E08E810E940D012A
:1008800061E08E810E940D0160E08E810E940D0169
:100890008BE891E00197F1F7DF91CF910895CF9226
:1008A000DF92EF92FF920F931F93CF93DF936C0130
:1008B0007C0187E0E80EF11CD0E0C0E0062F10E0DC
:1008C000B8010C2E02C0759567950A94E2F7617025
:1008D000F70181917F010E940D012196C430D1055D
:1008E00079F7C601DF91CF911F910F91FF90EF90A3
:1008F000DF90CF900C943904CF92DF92EF92FF9269
:100900000F931F93CF93DF93EC01F62E642F8C810E
:100910000E940D018D818F3F19F060E00E940D0152
:100920000F2D10E08F8584FF25C06E0187E0C80E73
:10093000D11CF12CE12CB8010E2C02C075956795E5
:100940000A94E2F76170F60181916F010E940D0136
:10095000FFEFEF1AFF0A88E0E816F10461F7CE0115
:10096000DF91CF911F910F91FF90EF90DF90CF908B
:100970000C943904B80184E0759567958A95E1F780
:10098000CE010E944F046F2DCE01DF91CF911F91B8
:100990000F91FF90EF90DF90CF900C944F0440E0C8
:1009A000682F81E192E00C947C04CF93DF93613057
:1009B00029F0909120029860909320026093240285
:1009C0001092250290E49093260280932702805C87
:1009D0008093280261E0809115020E943B01809182
:1009E00016028F3F19F061E00E943B0161E08091A7
:1009F00017020E943B01C1E1D2E09E012151324029
:100A00008091200284FD0BC084E090E0219628179D
:100A1000390744F461E08E810E943B01EECF88E00B
:100A200090E0F4CF8BE39DE00197F1F760E08091D7
:100A300015020E940D0160E0809117020E940D01D5
:100A4000809116028F3F19F060E00E940D018091A5
:100A5000200284FD39C063E081E192E00E944F04EE
:100A6000CBE4D6E4CE010197F1F763E081E192E0B7
:100A70000E944F042197F1F763E081E192E00E9428
:100A80004F0483E592E00197F1F762E081E192E0A3
:100A90000E944F048091200280620E94CF0484E073
:100AA000809321028CE00E94CF0481E00E94CF0459
:100AB0008BE39FE10197F1F782E08093220286E0C9
:100AC000DF91CF910C94CF0480620E94CF048BE41D
:100AD00096E40197F1F78091200280620E94CF0492
:100AE00083E592E00197F1F78091200280620E94F5
:100AF000CF04D0CF41E00E947C0481E090E00895D3
:100B0000CF92DF92EF92FF926B017C0141E06DE2A8
:100B100081E192E00E947C0466277727CB016C1963
:100B20007D098E099F094AE00E94DE030196FF902D
:100B3000EF90DF90CF900895CF93DF93EC016AE0C0
:100B400070E00E945D0A9B01072E000C880B990B38
:100B500037FF12C00E948005CE016AE070E00E945B
:100B60005D0A9C01BC01990F880B990B37FF08C0E7
:100B7000DF91CF910C9480054AE00E94DE03ECCF18
:100B80004AE0DF91CF910C94DE0385ED8093BC00A9
:100B90008091DD019091DE01A091DF01B091E00133
:100BA0000796A11DB11D23E0B695A795979587954A
:100BB0002A95D1F72091BC0024FD03C01092DB01DF
:100BC00008954091DD015091DE016091DF01709147
:100BD000E001452B462B472B69F30097A105B10592
:100BE00041F025E32A95F1F700000197A109B10929
:100BF000E1CF8091DC010C94D6011F920F920FB6C9
:100C00000F9211242F933F938F939F93AF93BF9392
:100C10008091790190917A01A0917B01B0917C0142
:100C20003091780123E0230F2D3758F50196A11D4F
:100C3000B11D209378018093790190937A01A0935C
:100C40007B01B0937C0180917D0190917E01A09108
:100C50007F01B09180010196A11DB11D80937D019E
:100C600090937E01A0937F01B0938001BF91AF91DB
:100C70009F918F913F912F910F900FBE0F901F90DA
:100C8000189526E8230F0296A11DB11DD2CF1F9201
:100C90000F920FB60F9211242F933F934F935F93B0
:100CA0006F937F938F939F93AF93BF93EF93FF9334
:100CB0008091B900887F803609F44AC0F0F5883207
:100CC00009F4A7C018F5803109F49BC0B8F4882353
:100CD00009F4F9C0883009F494C0FF91EF91BF91F5
:100CE000AF919F918F917F916F915F914F913F91C4
:100CF0002F910F900FBE0F901F901895883109F417
:100D000088C0803251F78093D90114C0803409F42F
:100D10009DC040F48033B9F38833F9F68093D9014C
:100D200085ECB0C0803509F485C0883509F496C0DB
:100D3000883499F60E94C505D0CF883909F48CC053
:100D400038F5883729F050F4883611F0803729F6C5
:100D500083E08093DB011092770157C0883809F453
:100D60007BC0803919F0803809F0B7CF80917701C6
:100D7000803208F071C0E091770181E08E0F80939E
:100D800077018091BB00F0E0E95AFE4F80833DC0BF
:100D9000803B39F0E0F4803A09F479C0883A09F0F0
:100DA0009CCF84E08093DB01109256011092550194
:100DB000E0918301F09184010995809155018111A1
:100DC0000FC081E0809355011092350109C0803C2D
:100DD00009F4A6CF883C09F4A3CF883B09F07DCF66
:100DE000E091560181E08E0F80935601F0E0EB5CBC
:100DF000FE4F80818093BB009091560180915501F8
:100E000029C08091B6018093BB0085EC8093BC0023
:100E100064CF9091D8018091D701981758F5E0914F
:100E2000D80181E08E0F8093D801F0E0E954FE4FA5
:100E30008081E9CFE091D80181E08E0F8093D801C5
:100E40008091BB00F0E0E954FE4F80839091D8017F
:100E50008091D7019817C8F285E8D8CFE091D801E2
:100E600081E08E0F8093D8018091BB00F0E0E954BF
:100E7000FE4F80838091DA0181115CCF81E0809305
:100E8000B50184EA8093BC001092DB0126CF85EC8B
:100E90008093BC001092DB0180917701803230F4A6
:100EA000E0917701F0E0E95AFE4F108260917701FE
:100EB00070E0E0918101F091820187E591E0099570
:100EC000109277010ACF1092D90134CFE5E0F2E019
:100ED0001382128288EE93E0A0E0B0E084839583D1
:100EE000A683B78384E091E091838083E1E1F2E01F
:100EF0001382128286E191E0918380838DE0848366
:100F00008FEF85838CE086838BE087838AE0808700
:100F100089E0818788E08287138614861586168685
:100F2000178661E080E10C94D504789484B58260E2
:100F300084BD84B5816084BD85B5826085BD85B57D
:100F4000816085BD80916E00816080936E001092FB
:100F50008100809181008260809381008091810076
:100F60008160809381008091800081608093800007
:100F70008091B10084608093B1008091B000816065
:100F80008093B00080917A00846080937A00809191
:100F90007A00826080937A0080917A0081608093E9
:100FA0007A0080917A00806880937A001092C10064
:100FB000C3E060E08C2F0E943B01CF5FC830C9F7CF
:100FC00064E084E10E94D5041092860110928501AC
:100FD0001092E201109204020E94B8018CE890E0A5
:100FE00090938401809383018DE890E09093820137
:100FF0008093810124E0E22E04E122E14FE063E0EE
:1010000085E10E94640337EAA32E31E0B32E40E06D
:10101000842E40E0942E22242A9456E0352EC1E0FE
:10102000D5EC1AE0C093E10128E620930302109268
:10103000E2011092040260E085E092E00E94350334
:101040000E94F7010E946C012B013C018091DB01A1
:10105000811161C0C093DB01C093DA012092D901F4
:101060001092D8013092D701C093B6018091B60199
:10107000806D8093B6018091B501813009F0CCC1BB
:101080001092B5010E946C012B013C018091B601C8
:101090008093BB008091DD019091DE01A091DF0182
:1010A000B091E001892B8A2B8B2BA1F00E946C015F
:1010B000C090DD01D090DE01E090DF01F090E00112
:1010C0006419750986099709C616D706E806F90650
:1010D00008F442C08091BC0083FDD8CFD093BC00FF
:1010E0000E946C012B013C018091DB01813009F4ED
:1010F00097C18091D801873008F0B4C18091D801A0
:10110000A7EBB1E0E7E8F1E090E0981751F12D91FD
:1011100021939F5FFACF8091DD019091DE01A09134
:10112000DF01B091E001892B8A2B8B2B09F48ECF44
:101130000E946C01C090DD01D090DE01E090DF01E3
:10114000F090E0016419750986099709C616D7065B
:10115000E806F90608F07ACF8091DC010E94D601FA
:1011600080E0109286018093850195EB692E91E0D5
:10117000792E85E092E00E94EE02982F92959F7062
:101180008F70919F800D112490E0F30192938293D0
:101190003F01AE16BF0669F7E0912402E33008F084
:1011A00063C1E150F0E0EF5EFD4F84898D5F8068A0
:1011B0000E94CF048EE191E00E942C048091AF0147
:1011C0009091B0010E949C0585E291E00E942C0460
:1011D0008091B1019091B2010E949C0585E291E05D
:1011E0000E942C048091B3019091B4010E949C054F
:1011F000E0912402E23008F039C1E150F0E0EF5E06
:10120000FD4F84898D5F80680E94CF0487E291E062
:101210000E942C048091A9019091AA010E949C0532
:101220008EE291E00E942C048091AB019091AC0180
:101230000E949C058EE291E00E942C0480E391E0E4
:101240000E942C048091A7019091A8010E949C0506
:1012500087E00E94E400892B01F18091B101909117
:10126000B20101968C3391050CF002C19093B2014A
:101270008093B101E090B3010091B1012091AF01E1
:101280004091AB016091A9018091A7010E94640384
:1012900087E00E94E400892BD9F786E00E94E400F1
:1012A000892B01F18091AF019091B00101968831B5
:1012B00091050CF0E2C09093B0018093AF01E090F3
:1012C000B3010091B1012091AF014091AB01609158
:1012D000A9018091A7010E94640386E00E94E400B6
:1012E000892BD9F785E00E94E400892B01F18091D8
:1012F000AB019091AC010196803291050CF0C2C017
:101300009093AC018093AB01E090B3010091B101E7
:101310002091AF014091AB016091A9018091A7019B
:101320000E94640385E00E94E400892BD9F784E0E1
:101330000E94E400892B01F18091A9019091AA01FA
:1013400001968D3091050CF0A0C09093AA01809376
:10135000A901E090B3010091B1012091AF0140914A
:10136000AB016091A9018091A7010E94640384E010
:101370000E94E400892BD9F783E00E94E400892BC6
:1013800001F18091A7019091A80101968436910501
:101390000CF082C09093A8018093A701E090B30164
:1013A0000091B1012091AF014091AB016091A90181
:1013B0008091A7010E94640383E00E94E400892BCE
:1013C000D9F70E946C012B013C0184E6C82ED12C78
:1013D000E12CF12C0E946C016419750986099709AA
:1013E000683E734081059105A8F3F1E0CF1AD1085A
:1013F000E108F10828EE420E23E0521E611C711C28
:10140000C114D104E104F10429F78114910409F411
:1014100009CE0E94000003CE85EE8093BC0060CE12
:101420008091DD019091DE01A091DF01B091E0019A
:10143000892B8A2B8B2B09F457CE0E946C01C0900C
:10144000DD01D090DE01E090DF01F090E001641951
:10145000750986099709C616D706E806F90608F041
:1014600043CE7ACE87E04CCEE2E09CCEE1E0C6CE21
:101470001092B2011092B101FDCE1092B001109203
:10148000AF011DCF81E090E03BCFE1E0F0E0F093D1
:10149000AA01E093A9015DCF1092A8011092A701C3
:1014A0007DCF991B79E004C0991F961708F0961B11
:1014B000881F7A95C9F78095089597FB072E16F433
:1014C000009407D077FD09D00E94930A07FC05D04D
:1014D0003EF4909581959F4F0895709561957F4F4B
:1014E0000895A1E21A2EAA1BBB1BFD010DC0AA1F65
:1014F000BB1FEE1FFF1FA217B307E407F50720F07D
:10150000A21BB30BE40BF50B661F771F881F991FF7
:101510001A9469F760957095809590959B01AC0140
:10152000BD01CF010895AA1BBB1B51E107C0AA1F33
:10153000BB1FA617B70710F0A61BB70B881F991F74
:101540005A95A9F780959095BC01CD010895EE0FAD
:0E155000FF1F0590F491E02D0994F894FFCF51
:10155E000000000035030803DB03DE020103EE0288
:10156E00DF02000000007A058E00DB03DA03546907
:10157E006D653A20003A00446174653A20002F00F0
:04158E0032300000F7
:00000001FF
