:100000000C9462000C948A000C948A000C948A0070
:100010000C948A000C948A000C948A000C948A0038
:100020000C948A000C948A000C948A000C948A0028
:100030000C948A000C948A000C948A000C948A0018
:100040000C9440050C948A000C948A000C948A004D
:100050000C948A000C948A000C948A000C948A00F8
:100060000C948A050C948A000000000023002600EE
:10007000290000000008000201000003040700003E
:1000800000000000000000000000250028002B00F8
:1000900000000000240027002A00040404040404D3
:1000A0000404020202020202030303030303010227
:1000B00004081020408001020408102001020408F6
:1000C0001020A90611241FBECFEFD8E0DEBFCDBFA0
:1000D00011E0A0E0B1E0E2E8F4E102C005900D9289
:1000E000AC33B107D9F722E0ACE3B1E001C01D9217
:1000F000A532B207E1F710E0C2E6D0E004C02197D4
:10010000FE010E94390AC136D107C9F70E94C9060B
:100110000C943F0A0C94000008950895AF92BF928A
:10012000CF92DF92EF92FF920F931F93CF93DF93C3
:100130006C017B018B01040F151FEB015E01AE18F2
:10014000BF08C017D10759F06991D601ED91FC9114
:100150000190F081E02DC6010995892B79F7C50141
:10016000DF91CF911F910F91FF90EF90DF90CF9093
:10017000BF90AF900895833081F028F4813099F0DA
:100180008230A9F008958730A9F08830C9F0843012
:10019000B1F4809180008F7D03C0809180008F77C3
:1001A00080938000089584B58F7784BD089584B5C9
:1001B0008F7DFBCF8091B0008F778093B000089542
:1001C0008091B0008F7DF9CFCF93DF93282F30E05F
:1001D000F901EE58FF4F8491F901E255FF4FD49198
:1001E000F901E656FF4FC491CC23A1F081110E9482
:1001F000BB00EC2FF0E0EE0FFF1FE859FF4FA59179
:10020000B491EC91ED2381E090E009F480E0DF917E
:10021000CF91089580E090E0FACF1F93CF93DF93C2
:10022000282F30E0F901EE58FF4F8491F901E25593
:10023000FF4FD491F901E656FF4FC491CC23A9F0AA
:10024000162F81110E94BB00EC2FF0E0EE0FFF1F74
:10025000EA57FF4FA591B4918FB7F894EC91111123
:1002600008C0D095DE23DC938FBFDF91CF911F9123
:100270000895DE2BF8CF3FB7F894809185019091D7
:100280008601A0918701B091880126B5A89B05C081
:100290002F3F19F00196A11DB11D3FBFBA2FA92F05
:1002A000982F8827BC01CD01620F711D811D911D02
:1002B00042E0660F771F881F991F4A95D1F708956E
:1002C0008F929F92AF92BF92CF92DF92EF92FF9266
:1002D0004B015C010E943B016B017C010E943B01D0
:1002E0006C197D098E099F09683E7340810591054F
:1002F000A8F321E0821A9108A108B10888EEC80E7F
:1003000083E0D81EE11CF11C81149104A104B10406
:1003100029F7FF90EF90DF90CF90BF90AF909F9024
:100320008F90089520915D01260F3327331F2132CE
:100330003105ECF42091E301FC0190E080E02430F1
:1003400069F082E00895A0915D012191AC01435CC8
:100350005E4FA40FB52FB11D2C930196861798F30D
:1003600080915D01680F60935D0180E0089581E0F8
:1003700008951092E30181E08093E2011092BD01A3
:1003800061E082E10E940D0161E083E10E940D01C4
:10039000E9EBF0E080818E7F808380818D7F808398
:1003A00088E48093B80085E48093BC000895CF93DF
:1003B000DF9391E090933C018823B9F0C091B8009D
:1003C000D091BA008091BC008A7B8093BC0060E031
:1003D00082E10E940D0160E083E10E940D010E9414
:1003E000B901D093BA00C093B800DF91CF910895BE
:1003F0008F929F92AF92BF92CF92DF92EF92FF9235
:100400000F931F93CF93DF93D0910C02D13208F05A
:10041000D7C0182FC0910B020E943B016B017C01D9
:100420008091E30181116BC082E08093E30110931E
:10043000E2018FEF8093E1011092E001D093DF01A0
:10044000ABEEB1E0EFEBF1E080E0D81391C0109299
:10045000BE018091BE01CC0FC82BC093BE0180911C
:10046000BD01813009F088C01092BD010E943B019E
:100470006B017C018091BE018093BB008091E501FE
:100480009091E601A091E701B091E801892B8A2BB8
:100490008B2BA1F00E943B010091E5011091E60138
:1004A0002091E7013091E8016C197D098E099F09BF
:1004B000061717072807390708F442C08091BC00C7
:1004C00083FDD8CF85EC8093BC000E943B016B017B
:1004D0007C018091E301823009F450C08091E101F8
:1004E0008F3F09F46FC08091E101803209F46CC044
:1004F0008091E101803309F469C084E026C08091D5
:10050000E5019091E601A091E701B091E801892B06
:100510008A2B8B2B09F484CF0E943B018090E5014C
:100520009090E601A090E701B090E8016C197D0978
:100530008E099F0986169706A806B90608F070CF9F
:100540008091E4010E94D70185E01092EA011092A7
:100550000C021092E901DF91CF911F910F91FF9052
:10056000EF90DF90CF90BF90AF909F908F900895C5
:100570009D9191938F5F69CF85EEA5CF8091E50125
:100580009091E601A091E701B091E801892B8A2BB7
:100590008B2B09F49ECF0E943B010091E501109145
:1005A000E6012091E7013091E8016C197D098E097F
:1005B0009F09061717072807390708F08ACFC0CF09
:1005C00081E0C3CF80E0C1CF82E0BFCF83E0BDCF69
:1005D0000895E0918E0180918D01E81730F4F0E0EC
:1005E000E157FE4F808190E008958FEF9FEF0895CF
:1005F00090918E0180918D012FEF3FEF981748F475
:10060000E92FF0E0E157FE4F208130E09F5F9093AB
:100610008E01C901089580918D0190918E01891BF1
:10062000990B0895CF92DF92EF92FF920F931F9351
:10063000CF93DF937C01CB018A012091E901222332
:1006400089F0EB016B01C40ED51ECC15DD0569F0F8
:100650006991D701ED91FC910190F081E02DC701E6
:100660000995F3CF642F0E949201C801DF91CF91C9
:100670001F910F91FF90EF90DF90CF900895CF934F
:10068000DF931F92CDB7DEB769832091E901222362
:10069000F9F020910C02203258F021E030E0FC010A
:1006A0003383228390E080E00F90DF91CF91089513
:1006B0008091EA01E82FF0E0E551FE4F99819083A7
:1006C0008F5F8093EA0180930C0281E090E0ECCF91
:1006D00061E0CE0101960E949201F7CF682F8DE074
:1006E00092E00C943F03DF92EF92FF920F931F93DF
:1006F000CF93DF93D82F162FF42ED22E81E0809344
:10070000E90188E680930B021092EA0110920C0234
:1007100090E080E00E946E03CAE08E2D6C2F0E9454
:10072000E3098295807F682F690F8DE092E00E9437
:100730003F03802F6C2F0E94E3098295807F682FF2
:10074000690F8DE092E00E943F038D2D6C2F0E9477
:10075000E3098295807F682F690F8DE092E00E9407
:100760003F0360E08DE092E00E943F038F2D6C2FED
:100770000E94E3098295807F682F690F8DE092E0E7
:100780000E943F03812F6C2F0E94E3098295807F96
:10079000682F690F8DE092E00E943F038D2F6C2F30
:1007A0000E94E3098295807F682F690F8DE092E0B7
:1007B0000E943F0390E080E00E946E0381E0DF91A1
:1007C000CF911F910F91FF90EF90DF900C94F80163
:1007D000FC01248131E03093E90120930B02109257
:1007E000EA0110920C028385862B90E00E946E0332
:1007F00081E00C94F801089590E080E008958F92D4
:100800009F92AF92BF920F931F93CF93DF93CDB779
:10081000DEB7A1970FB6F894DEBF0FBECDBF19A209
:10082000423008F44AE08E010F5D1F4F842E912C58
:10083000B12CA12CA50194010E94030AE62FB90155
:10084000CA01EA3044F5E05DD801EE938D01232B17
:10085000242B252B79F790E080E0109769F0FD01BB
:1008600001900020E9F73197AF014A1B5B0BBD01F6
:1008700089E192E00E948E00A1960FB6F894DEBF47
:100880000FBECDBFDF91CF911F910F91BF90AF9061
:100890009F908F900895E95CD7CFFC0101900020D4
:1008A000E9F73197AF01481B590BBC0189E192E090
:1008B0000C948E000F931F93CF938C01C62F0E9430
:1008C000E8036C2F6460C8010E94E8036C2F6B7F03
:1008D000C8010E94E80383EC90E00197F1F7CF9103
:1008E0001F910F9108950F931F93CF93DF938C0166
:1008F000D62FC42F607F642B0E945A0480E1D89FBA
:10090000B00111246C2BC801DF91CF911F910F9181
:100910000C945A0441E00E94730481E090E0089531
:10092000CF92DF92EF92FF926B017C0141E06DE28A
:1009300089E192E00E94730466277727CB016C1946
:100940007D098E099F094AE00E94FF030196FF90EE
:10095000EF90DF90CF900895CF93DF93CDB7DEB7C0
:1009600028970FB6F894DEBF0FBECDBF98E0E0E049
:10097000F1E0DE01119601900D929A95E1F79091C8
:100980002102981710F48FEF890F90E0880F991FBC
:1009900021E030E02C0F3D1F820F931FFC0160818E
:1009A0006D5F606840E089E192E028960FB6F894A8
:1009B000DEBF0FBECDBFDF91CF910C947304CF93F8
:1009C000DF93EC016AE070E00E94EF099B01072EC3
:1009D000000C880B990B37FF12C00E949004CE01C7
:1009E0006AE070E00E94EF099C01BC01990F880B3E
:1009F000990B37FF08C0DF91CF910C9490044AE027
:100A00000E94FF03ECCF4AE0DF91CF910C94FF03EB
:100A100085ED8093BC008091E5019091E601A09165
:100A2000E701B091E8010796A11DB11D23E0B6953D
:100A3000A795979587952A95D1F72091BC0024FD1D
:100A400003C01092E30108954091E5015091E60141
:100A50006091E7017091E801452B462B472B69F324
:100A60000097A105B10541F025E32A95F1F70000B3
:100A70000197A109B109E1CF8091E4010C94D7015C
:100A80001F920F920FB60F9211242F933F938F93C3
:100A90009F93AF93BF938091810190918201A09128
:100AA0008301B09184013091800123E0230F2D3721
:100AB00058F50196A11DB11D2093800180938101FD
:100AC00090938201A0938301B0938401809185016A
:100AD00090918601A0918701B09188010196A11D96
:100AE000B11D8093850190938601A0938701B093F7
:100AF0008801BF91AF919F918F913F912F910F905E
:100B00000FBE0F901F90189526E8230F0296A11D87
:100B1000B11DD2CF1F920F920FB60F9211242F93B7
:100B20003F934F935F936F937F938F939F93AF9375
:100B3000BF93EF93FF938091B900887F803609F4CB
:100B40004AC0F0F5883209F4A7C018F5803109F4DD
:100B50009BC0B8F4882309F4F9C0883009F494C024
:100B6000FF91EF91BF91AF919F918F917F916F9185
:100B70005F914F913F912F910F900FBE0F901F905B
:100B80001895883109F488C0803251F78093E101CB
:100B900014C0803409F49DC040F48033B9F3883325
:100BA000F9F68093E10185ECB0C0803509F485C089
:100BB000883509F496C0883499F60E940805D0CF8C
:100BC000883909F48CC038F5883729F050F4883614
:100BD00011F0803729F683E08093E30110927F01C2
:100BE00057C0883809F47BC0803919F0803809F083
:100BF000B7CF80917F01803208F071C0E0917F0112
:100C000081E08E0F80937F018091BB00F0E0E15A7C
:100C1000FE4F80833DC0803B39F0E0F4803A09F418
:100C200079C0883A09F09CCF84E08093E301109268
:100C30005E0110925D01E0918901F0918A010995B0
:100C400080915D0181110FC081E080935D01109260
:100C50003D0109C0803C09F4A6CF883C09F4A3CF2C
:100C6000883B09F07DCFE0915E0181E08E0F80939B
:100C70005E01F0E0E35CFE4F80818093BB009091C9
:100C80005E0180915D0129C08091BE018093BB000F
:100C900085EC8093BC0064CF9091E0018091DF01EE
:100CA000981758F5E091E00181E08E0F8093E00104
:100CB000F0E0E154FE4F8081E9CFE091E00181E076
:100CC0008E0F8093E0018091BB00F0E0E154FE4F75
:100CD00080839091E0018091DF019817C8F285E848
:100CE000D8CFE091E00181E08E0F8093E001809108
:100CF000BB00F0E0E154FE4F80838091E20181115E
:100D00005CCF81E08093BD0184EA8093BC001092A7
:100D1000E30126CF85EC8093BC001092E301809123
:100D20007F01803230F4E0917F01F0E0E15AFE4F24
:100D3000108260917F0170E0E0918B01F0918C0155
:100D40008FE591E0099510927F010ACF1092E101A1
:100D500034CFEDE0F2E01382128288EE93E0A0E05F
:100D6000B0E084839583A683B7838CE091E0918380
:100D70008083E9E1F2E0138212828EE191E09183B7
:100D8000808388E3848384E1818784E0828713867B
:100D90000895789484B5826084BD84B5816084BDF3
:100DA00085B5826085BD85B5816085BD80916E0009
:100DB000816080936E00109281008091810082603A
:100DC0008093810080918100816080938100809177
:100DD00080008160809380008091B1008460809366
:100DE000B1008091B00081608093B00080917A0062
:100DF000846080937A0080917A00826080937A0088
:100E000080917A00816080937A0080917A00806876
:100E100080937A001092C10043E050E0FA01E2555D
:100E2000FF4F2491FA01E656FF4F84918823C1F0C9
:100E300090E0880F991FFC01E057FF4FC591D491B6
:100E4000FC01EA57FF4FA591B4919FB7F8948881B0
:100E5000E22FE0958E2388838C91E823EC939FBF4B
:100E60004F5F5F4F48305105C9F610928E011092C6
:100E70008D011092EA0110920C020E94B9018CE8D7
:100E800090E090938A01809389018DE890E090939F
:100E90008C0180938B0110921E028091230282307C
:100EA00018F098E090931E028093210262E370E0B4
:100EB00080E090E00E9460016091240289E192E06C
:100EC0000E94E80368EE73E080E090E00E94600119
:100ED00060E389E192E00E945A04CBE4D6E4CE01BB
:100EE0000197F1F760E389E192E00E945A042197AB
:100EF000F1F760E389E192E00E945A0483E592E011
:100F00000197F1F760E289E192E00E945A04609152
:100F10001E02606240E089E192E00E94730484E076
:100F200080931F0240E06CE089E192E00E9473042C
:100F300040E061E089E192E00E947304CBE3DFE1ED
:100F4000CE010197F1F782E08093200240E066E055
:100F500089E192E00E94730440E062E089E192E05E
:100F60000E9473042197F1F788E08093240260E0E7
:100F700089E192E00E94E8031092EA0110920C02CB
:100F80000E94B90124E0E22E02E321E14DE164E098
:100F900080E10E947303C1E03FEAA32E31E0B32E4B
:100FA00040E0842E40E0942E56E0252ECC24C394BD
:100FB000D12C88E6382E95ECF92EDAE0C093E901C1
:100FC00030920B021092EA0110920C0290E080E045
:100FD0000E946E0381E00E94F8010E943B012B01F8
:100FE0003C018091E301811162C0C093E301C09391
:100FF000E2018FEF8093E1011092E0012092DF0186
:10100000C093BE018091BE01806D8093BE0180912E
:10101000BD01813009F096C11092BD010E943B01D3
:101020002B013C018091BE018093BB008091E501C2
:101030009091E601A091E701B091E801892B8A2BFC
:101040008B2BA1F00E943B010091E5011091E6017C
:101050002091E7013091E801641975098609970923
:10106000061717072807390708F442C08091BC000B
:1010700083FDD8CFF092BC000E943B012B013C01C4
:101080008091E301813009F461C18091E0018730F2
:1010900008F07EC18091E001EFEBF1E0AFE8B1E054
:1010A00090E0981751F121912D939F5FFACF809195
:1010B000E5019091E601A091E701B091E801892B4B
:1010C0008A2B8B2B09F48DCF0E943B010091E50107
:1010D0001091E6012091E7013091E801641975094A
:1010E00086099709061717072807390708F079CFE7
:1010F0008091E4010E94D70180E010928E018093DC
:101100008D010DEB11E08DE092E00E94F802982F26
:1011100092959F708F709D9F800D112490E0F80133
:10112000929382938F01AE16BF0669F782E00E9408
:10113000AC0486E291E00E944D048091B701909149
:10114000B8010E94DF048DE291E00E944D0480917D
:10115000B9019091BA010E94DF048DE291E00E94F2
:101160004D048091BB019091BC010E94DF0481E09D
:101170000E94AC048FE291E00E944D048091B10185
:101180009091B2010E94DF0486E391E00E944D0439
:101190008091B3019091B4010E94DF0486E391E055
:1011A0000E944D0488E391E00E944D048091AF01BC
:1011B0009091B0010E94DF0487E00E94E400892B37
:1011C00001F18091B9019091BA0101968C3391059A
:1011D0000CF0E0C09093BA018093B901E090BB019C
:1011E0000091B9012091B7014091B3016091B10123
:1011F0008091AF010E94730387E00E94E400892B75
:10120000D9F786E00E94E400892B01F18091B701B3
:101210009091B8010196883191050CF0C0C090936F
:10122000B8018093B701E090BB010091B901209112
:10123000B7014091B3016091B1018091AF010E946B
:10124000730386E00E94E400892BD9F785E00E94B1
:10125000E400892B01F18091B3019091B4010196D2
:10126000803291050CF0A0C09093B4018093B3013B
:10127000E090BB010091B9012091B7014091B30109
:101280006091B1018091AF010E94730385E00E94DB
:10129000E400892BD9F784E00E94E400892B01F156
:1012A0008091B1019091B20101968D3091050CF0C1
:1012B00080C09093B2018093B101E090BB01009196
:1012C000B9012091B7014091B3016091B1018091C2
:1012D000AF010E94730384E00E94E400892BD9F7D8
:1012E00083E00E94E400892B01F18091AF0190918D
:1012F000B0010196843691050CF060C09093B00166
:101300008093AF01E090BB010091B9012091B7013A
:101310004091B3016091B1018091AF010E947303CC
:1013200083E00E94E400892BD9F764E670E080E056
:1013300090E00E9460018114910409F43FCE0E9464
:10134000000037CEE5EEE093BC0096CE8091E5013B
:101350009091E601A091E701B091E801892B8A2BD9
:101360008B2B09F48DCE0E943B010091E501109179
:10137000E6012091E7013091E801641975098609B9
:101380009709061717072807390708F079CEB0CE56
:1013900087E082CE1092BA011092B9011FCF10924D
:1013A000B8011092B7013FCFD092B401C092B301FF
:1013B0005FCFD092B201C092B1017FCF1092B00145
:1013C0001092AF019FCF991B79E004C0991F961727
:1013D00008F0961B881F7A95C9F78095089597FBAA
:1013E000072E16F4009407D077FD09D00E94250A35
:1013F00007FC05D03EF4909581959F4F0895709518
:1014000061957F4F0895A1E21A2EAA1BBB1BFD0117
:101410000DC0AA1FBB1FEE1FFF1FA217B307E407D3
:10142000F50720F0A21BB30BE40BF50B661F771F2B
:10143000881F991F1A9469F760957095809590950B
:101440009B01AC01BD01CF010895AA1BBB1B51E15B
:1014500007C0AA1FBB1FA617B70710F0A61BB70B24
:10146000881F991F5A95A9F780959095BC01CD01C9
:101470000895EE0FFF1F0590F491E02D0994F89464
:02148000FFCF9C
:101482000000400014005400000000003F0312035B
:10149200FC03E8020B03F802E902000000008A04E0
:1014A2008E00FC03FB0354696D653A20003A004448
:0C14B2006174653A20002F003230000009
:00000001FF
